:020000020000FC
:060000000C9470001BC10E
:020008009DC198
:1000600020444F4F52204C4F434B000050573A0012
:1000700000002057524F4E472050415353574F5284
:1000800044002052494748542050415353574F523F
:1000900044002020444F4F52204F50454E454400CD
:1000A00020454E544552204E455720504153530051
:1000B0002050415353574F5244204348414E4745E7
:1000C0004400000020444F4F52204E4F5720434CD5
:1000D0004F5345440000360031323334353600008A
:1000E0000FE50DBF08E00EBF00E004BB8F9A9798A4
:1000F0008B9A8C9A0BE005BF00E004BF00EC0BBFAD
:100100007894BF9ABE9ABD9ABC9ABB9ABA9AB99A89
:10011000B89AD29AD09A0E94C601F0E0E0E300E0DB
:100120000E940C02F0E0E6E300E40E940C020F9350
:100130002F931F93EF93FF93E199FECFA5E0B3E0D8
:10014000AEBBBFBBE09A2DB3E6EDF0E015912117F1
:1001500009F479F0E8EDF0E0A0E0B3E0E199FECF3A
:10016000AEBBBFBB15911DBBE29AE19AA3951030BF
:10017000A9F7FF91EF911F912F910F91939A60E052
:1001800030E00E940C010E9450010E94BD017130BC
:10019000B9F76130A9F729F030E00E9498010E9478
:1001A0009801F0E0E0E500E00E940C02F0E0E6E3F8
:1001B00000E40E940C020E941601C0E0D2E0A0E020
:1001C000B3E035E0E199FECFAEBBBFBB19911DBBDB
:1001D000E29AE19AA3953A953030A1F760E0F0E019
:1001E000E8E500E00E940C020E9498010E9498013C
:1001F0000E9498010E9498010E9498010E94980113
:100200000E9498010E9498010E9498010E94980102
:100210000E94BD0160E0B4CFF0E0E0E300E00E94A6
:100220000C02F0E0E6E300E40E940C02A0E0B2E081
:100230003530F1F730E00E94B40108951F932F93F9
:1002400013B3103011F427E323C0113011F424E369
:100250001FC0123011F421E31BC0143011F428E345
:1002600017C0153011F425E313C0163011F422E342
:100270000FC0173011F420E30BC0183011F429E33C
:1002800007C0193011F426E303C01A3023E300C07D
:10029000022F0E9426022D9333952F911F911895BE
:1002A0000F931F93AF93BF93EF93FF930E94880127
:1002B000A2ECB0E0C0E0D2E035E00D911991011759
:1002C00001F53A95D1F7F0E0E1E400E00E940C027C
:1002D00006E00093F300613061F001F4979AF0E0DA
:1002E000E9E400E40E940C02979B0C9479010C94C1
:1002F0006F0171E0FF91EF91BF91AF911F910F914D
:100300000895F0E0E9E300E00E940C020E949801E9
:10031000E2ECF0E0A0E0B3E0E199FECFAEBBBFBB02
:10032000E09A0DB30F3F19F00193A395F5CF08950F
:100330005FEF6CE37FEF7A95F1F76A95D9F75A95FD
:10034000C1F70895979B0C94A7010C94A90161E053
:1003500018950E94B401F0E0E2E600E00E940C0271
:100360000E9498019798189504E60E9456020E94F0
:10037000560201E00E942B02089500E30E945602FB
:100380000E94560201E00E942B02089504E60E949A
:1003900056020E94560200E30E942B020AE00E94CD
:1003A00056020E94560200E30E942B0208EC0E94B3
:1003B00064020E94640200E30E942B0208EC0E9487
:1003C00064020E94640208E30E942B0200E50E947E
:1003D00064020E94640208E00E942B0200E50E9471
:1003E00064020E94640201E00E942B0204E00E9469
:1003F00056020E94560206E00E942B0200E50E946F
:1004000064020E9464020CE00E942B0200E50E943C
:1004100064020E9464020895FF93EF93EE0FFF1FA2
:1004200000680E942B0200E50E9464020E946402A0
:100430000591003041F00E94260200E50E9464020E
:100440000E946402F5CFEF91FF910895D89ADA984F
:100450000E9430020895D898DA980E9430020895D8
:10046000C79A07FFC798C69A06FFC698C59A05FFA0
:10047000C598C49A04FFC498C39A03FFC398C29A4C
:1004800002FFC298C19A01FFC198C09A00FFC098AC
:10049000DA9A0E946902DA980E9469020E94640254
:1004A00008950E945B02CA95E1F708950E945B02DD
:1004B0000A95E1F70895CF93DF93CBECD7E0CA9587
:1004C000F1F7DF91CF9108950E9469020A95E1F753
:0C04D00008950F930F910F930F91089562
:00000001FF
